:100000000C94B3000C94DB000C94DB000C942806D9
:100010000C9452060C947C060C94DB000C94DB00D0
:100020000C94DB000C94DB000C94DB000C94DB00E4
:100030000C94DB000C94DB000C94DB000C94DB00D4
:100040000C94920B0C94DB000C94690E0C94BB0E78
:100050000C94DB000C94DB000C94DB000C94DB00B4
:100060000C94010A0C94DB0000C201000100110095
:1000700011000C0000E100000A002500250021000D
:10008000009600001900390039003600127A00008D
:100090001F004600460044008070000022004D0012
:1000A0004D004A00004B00003600750075007200DC
:1000B000403800004A009C009C0099008025000008
:1000C0007200EC00EC00E900C0120000E900DA0167
:1000D000DA01D70160090000D701B603B603B30304
:1000E000B0040000B3036E076E076B0758020000F0
:1000F0006E07DC0EDC0ED80E2C010000DC0EC11DDC
:10010000C11DBE1D00000000240027002A000000C1
:100110000000250028002B0000000000230026001E
:10012000290004040404040404040202020202027A
:1001300003030303030301020408102040800102AB
:10014000040810200102040810200000000700022B
:1001500001000003040600000000000000000F0181
:100160006E099010080111241FBECFEFD8E0DEBF4A
:10017000CDBF11E0A0E0B1E0E8E2F8E202C00590F6
:100180000D92AE3CB107D9F713E0AEECB1E001C07F
:100190001D92A53CB107E1F711E0C4E6D1E004C02F
:1001A0002297FE010E940314CE35D107C9F70E94A1
:1001B000E7100C9407140C94000081309105C1F4F1
:1001C0006F5F7F4F21F58EEC91E069E00E94A40300
:1001D00082ED91E06AE00E94A40386ED91E066E082
:1001E0000E947E0581E092E063E00E94C0030895D2
:1001F000892B69F46F5F7F4F51F482E991E090930E
:10020000D7018093D60186ED91E00E94980708956A
:1002100080E090E06FEF7FEF0E94DD00089581E0C5
:1002200090E06FEF7FEF0E94DD0008958EEC91E08B
:1002300060E070E00E948B0582ED91E060E070E08C
:100240000E948B05089583EA93E060E071E00E94CC
:10025000441260916201709163018EEC91E00E9402
:100260008B056091620170916301709561957F4F7C
:1002700082ED91E00E948B05089583EA93E066E0A9
:1002800071E00E9444126091620170916301709567
:1002900061957F4F8EEC91E00E948B056091620129
:1002A0007091630182ED91E00E948B05089583EACD
:1002B00093E06BE071E00E944412609162017091E2
:1002C0006301709561957F4F8EEC91E00E948B05E4
:1002D0006091620170916301709561957F4F82ED2D
:1002E00091E00E948B050895909308028093070285
:1002F000019711F583EA93E064E171E00E944412F2
:1003000010920B0210920C0210920D0210920E022B
:1003100010920A02109209026091620170916301C9
:100320008EEC91E00E948B056091620170916301F7
:1003300082ED91E00E948B05089583EA93E063E2E9
:1003400071E00E94441281E092E060E971E00E9455
:1003500064040E94BF129B01AC017093060260937B
:10036000050283EA93E0B9014AE050E00E942512B9
:100370008091050290910602009711F00B978CF086
:1003800060916201709163018EEC91E00E948B0597
:10039000609162017091630182ED91E00E948B0592
:1003A00008950E941601089586ED91E00E947C0454
:1003B000892B39F486ED91E00E943705882309F4F2
:1003C000F8C086ED91E00E94C0048C31910509F4DB
:1003D00078C08D319105ECF48C30910509F4A3C0FF
:1003E0008D3091055CF48830910509F474C0893032
:1003F000910599F1079709F0DEC032C08831910567
:1004000009F486C08931910529F1469709F0D3C0D6
:10041000A4C08A34910539F18B34910564F4823497
:100420009105B1F18534910509F48CC080349105B2
:1004300009F0C1C00CC08A359105B9F18E3591051E
:1004400009F452C08235910509F0B5C017C00E9469
:100450009D0108950E94570108950E943D0108954D
:100460000E942301089580916601909167019C018B
:10047000B3E0220F331FBA95E1F73DC080916601CA
:1004800090916701A3E0880F991FAA95E1F746C0F4
:1004900080916601909167019C01F3E0220F331F68
:1004A000FA95E1F7281B390B28C0809166019091DD
:1004B00067019C01220F331F280F391F220F331FA2
:1004C0001CC080916601909167019C01220F331F2F
:1004D000220F331F10C08091660190916701880F31
:1004E000991F880F991F1AC080916601909167012A
:1004F0009C01220F331F280F391F809164019091B6
:100500006501280F391F309363012093620108951C
:100510008091660190916701880F991F2091640175
:100520003091650108C0809164019091650120912E
:10053000660130916701820F931F9093630180934E
:100540006201089583EA93E06BE271E00E94441235
:1005500081E090E00E947401089583E161E00E94CF
:10056000E60C83E161E00E94250D62E370E080E02B
:1005700090E00E94E80B83E161E00E94E60C83E1D9
:1005800060E00E94250D81E092E060E971E00E9448
:1005900064040E94BF129B01AC0170930602609339
:1005A000050283EA93E0B9014AE050E00E94251277
:1005B00008950E9416010895EF92FF920F931F93E2
:1005C00086ED91E00E947C04892B31F486ED91E068
:1005D0000E943705882321F086ED91E00E94C00437
:1005E0008091090290910A02009721F0019709F089
:1005F00086C04CC083EA93E062E471E00E9444123A
:1006000081E092E060E971E00E9464040E94BF1200
:100610009B01AC01709306026093050283EA93E0AC
:10062000B9014AE050E00E942512809105029091A4
:100630000602009709F463C00A970CF060C060914D
:10064000620170916301709561957F4F8EEC91E02E
:100650000E948B05609162017091630170956195B4
:100660007F4F82ED91E00E948B0581E090E09093B6
:100670000A02809309020E94DA0B60930B027093C6
:100680000C0280930D0290930E0239C00E94DA0B87
:100690007B018C0180910B0290910C02A0910D02C4
:1006A000B0910E02B801A701481B590B6A0B7B0BD6
:1006B00083EA93E02AE030E00E94D11180910B029E
:1006C00090910C02A0910D02B0910E02E81AF90A65
:1006D0000A0B1B0B89EBE8168BE0F80680E0080795
:1006E00080E0180760F083EA93E06AE471E00E941A
:1006F00044120E94160180E090E00E9474011F9154
:100700000F91FF90EF900895809107029091080259
:10071000009719F0019731F403C00E94D4010895A5
:100720000E94DC020895109208021092070286EDE2
:1007300091E00E94260583EA93E040E855E260E0FC
:1007400070E00E94F60E0895DC01E62FF0E0EE0F57
:10075000FF1FE859FE4F80818C93818111968C9305
:10076000119712966C9381E0809380008BE08093C8
:10077000810083E08093B00084E08093B10008950D
:10078000DC01E62FF0E0EE0FFF1FE859FE4F8081FD
:100790008C93818111968C93119712966C93089586
:1007A000FF920F931F938C01F62EFC01818161E073
:1007B0000E94E60CF80181816F2D0E94250D1F918A
:1007C0000F91FF900895CF92DF92EF92FF920F93D7
:1007D0001F93CF93DF936C01FC01E3A0F4A08DEF96
:1007E0009FEFE80EF91E858D0E94790D892B19F077
:1007F0002FEF3FEF1CC000E010E0C0E0D0E0C701E9
:100800000E94410CF601858D0E94790D0C2E02C0CC
:10081000880F991F0A94E2F7082B192B2196C830EC
:10082000D10569F7C7010E94410C98013070C901D8
:10083000DF91CF911F910F91FF90EF90DF90CF90BC
:1008400008950F931F938C01FC01808160E00E944A
:10085000E60CF80180810E94790D20E0892B09F0D7
:1008600021E0822F1F910F910895CF92DF92EF9296
:10087000FF920F931F938C016A017B0160E00E943D
:10088000D00382E090E00E94410CC80161E00E9428
:10089000D0038AE090E00E94410CC80160E00E9411
:1008A000D003F801818160E00E94E60CF8018181AB
:1008B00061E0A70196010E94CC0D1F910F91FF905E
:1008C000EF90DF90CF90089527E330E0629FA00182
:1008D000639F500D729F500D112448535F4F60E08D
:1008E00070E00E9435040E94F21220E030E048E6F9
:1008F00052E40E9457120895CF93DF93EC0189A12F
:10090000882381F0CE010E94E3038DA39EA3292FAB
:10091000332727FD3095209530952227330F221F4E
:1009200033270CC088A1882329F083EA93E00E9432
:10093000E30F03C0CE010E94C2079C01C901DF91F1
:10094000CF910895FC0181A1882361F025A136A1F2
:100950008FEF9FEF96A385A337FF10C0CF010E94B2
:10096000E3030BC080A1882329F083EA93E00E946F
:10097000171003C0CF010E94A1079C01C90108956F
:10098000EF92FF920F931F93CF93DF937C010E5F43
:100990001F4F87E0013D180750F4C7010E94A204D1
:1009A000C82FD0E0209799F3CF3FD10581F38AE09B
:1009B00090E00E94410CCE01DF91CF911F910F91E9
:1009C000FF90EF900895FC0180A1882329F083EA2D
:1009D00093E00E9450100895CF010E94DC07089513
:1009E000FC0180A1882329F083EA93E00E947D0F17
:1009F0000895CF010E9463070895EF92FF920F932D
:100A00001F93CF93DF93EC017A018B0160E472E4D2
:100A10008FE090E0A80197010E94E6133CA32BA36E
:100A200088A1882339F083EA93E0B801A7010E94E6
:100A3000F60E05C0CE01B801A7010E94A606DF91FF
:100A4000CF911F910F91FF90EF9008950F931F93F7
:100A50008C0140E855E260E070E00E94FD04F8017E
:100A6000848D60E00E94E60C1F910F9108951F9302
:100A7000CF93DF93EC0188A1882319F0CE010E9467
:100A8000F004CE014C960E942104182F88A18823DF
:100A900019F0CE010E94260581E08127DF91CF91D8
:100AA0001F910895FF920F931F93CF93DF93EC0153
:100AB000F62E062F10E0000F111F08591E4FF801E7
:100AC0006181408120E00E941009F80180818C8FB3
:100AD00081818D8FFE8E82E991E0998388831AA2AD
:100AE00018A219A280E0F5E0FF1609F481E088A3BE
:100AF000DF91CF911F910F91FF9008950F931F9356
:100B00008C010E94520582E891E0F8019183808374
:100B10001F910F910895EF92FF920F931F93CF9320
:100B2000DF937C01EB016F3F710519F014F0CFEFFB
:100B3000D0E08E018FEFC130D8071CF401E01FEF29
:100B40000AC0D7FD08C0C70161E00E94D003F701C9
:100B50008081BE010AC0C70160E00E94D003662701
:100B60007727601B710BF70180810E94860CDF9153
:100B7000CF911F910F91FF90EF9008950F931F93C6
:100B8000CF93DF93FC01738D76957170A685B78541
:100B90009585772329F08C91892309F454C004C0EA
:100BA0008C91892309F04FC08389948920E00197B3
:100BB0002FEF8F3F9207D9F7C589D689A685B785CC
:100BC000158560E031E040E050E000E0CE01202FEC
:100BD00001972FEF8F3F9207D9F78C91812311F066
:100BE000632B03C0832F80956823330F4F5F5F4FC4
:100BF0004830510559F78789908D20E001972FEFF4
:100C00008F3F9207D9F77111609580915102209121
:100C1000520290E001968F73907030E08217930734
:100C200079F0E0915102F0E0EF5EFD4F608380913A
:100C3000510290E001968F7390708093510203C02F
:100C4000838D8160838FDF91CF911F910F910895E4
:100C50001F920F920FB60F9211242F933F934F9331
:100C60005F936F937F938F939F93AF93BF93EF9314
:100C7000FF9380910F0290911002009711F00E9453
:100C8000BE05FF91EF91BF91AF919F918F917F91A1
:100C90006F915F914F913F912F910F900FBE0F90E9
:100CA0001F9018951F920F920FB60F9211242F9339
:100CB0003F934F935F936F937F938F939F93AF93E4
:100CC000BF93EF93FF9380910F02909110020097D2
:100CD00011F00E94BE05FF91EF91BF91AF919F91DE
:100CE0008F917F916F915F914F913F912F910F90D5
:100CF0000FBE0F901F9018951F920F920FB60F9274
:100D000011242F933F934F935F936F937F938F9310
:100D10009F93AF93BF93EF93FF9380910F029091B6
:100D20001002009711F00E94BE05FF91EF91BF9154
:100D3000AF919F918F917F916F915F914F913F9173
:100D40002F910F900FBE0F901F901895CF92DF92AA
:100D5000EF92FF920F931F93CF93DF93EC017A01F1
:100D60008B011A8E198E188E1F8A1E8A1D8A1C8A64
:100D70001B8A20E030E06901CC0CDD1CC20ED31EC2
:100D8000B601660F771F660F771FAB0148595F4F9B
:100D9000FA0185919591A591B4918E159F05A007B3
:100DA000B107E9F4FB01E459FF4F859194919C8BC5
:100DB0008B8BFB01E259FF4F859194919E8B8D8B1C
:100DC000FB01E059FF4F85919491988F8F8BFB0128
:100DD000EE58FF4F859194919A8F898F06C02F5FAF
:100DE0003F4F2D30310509F0C6CF8F89988D892B63
:100DF00009F449C04C85463108F03DC09091680027
:100E0000483010F484E005C04E3010F082E001C09C
:100E100081E0892B80936800483028F4EDE6F0E00B
:100E2000ADE6B0E00BC04E3028F0ECE6F0E0ACE60A
:100E3000B0E004C0EBE6F0E0ABE6B0E05081483053
:100E400040F481E090E002C0880F991F4A95E2F7D4
:100E500010C0242F30E04E3018F42850304002C02B
:100E60002E50304081E090E002C0880F991F2A95F3
:100E7000E2F7852B8C93898D9A8D20E001972FEFD7
:100E80008F3F9207D9F780910F02909110028C1733
:100E90009D0781F08B8D8E7F8B8F9FB7F89410927A
:100EA00051028091510280935202D0931002C0935C
:100EB0000F029FBFDF91CF911F910F91FF90EF9095
:100EC000DF90CF900895FC014485463180F548308D
:100ED00028F4EDE6F0E0ADE6B0E00BC04E3028F4CB
:100EE000EBE6F0E0ABE6B0E004C0ECE6F0E0ACE648
:100EF000B0E05081483040F481E090E002C0880FBB
:100F0000991F4A95E2F710C0242F30E04E3018F4B4
:100F10002850304002C02E50304081E090E002C0A6
:100F2000880F991F2A95E2F7809585238C93089561
:100F3000FC0182EA91E091838083CF010E946307E4
:100F4000089520910F02309110022817390731F4CB
:100F50009091520280915102981719F42FEF3FEFB0
:100F60000FC0E0915202F0E0EF5EFD4F20818091D2
:100F7000520290E001968F7390708093520230E09D
:100F8000C901089520910F023091100228173907E6
:100F900019F020E030E00EC0809151022091520201
:100FA00090E0805C9F4F821B910960E470E00E949A
:100FB000B1139C01C90108950F931F93DC01599649
:100FC0008D919C915A97892B49F481E090E013967A
:100FD0009C938E93129720E030E097C00FB7F8945F
:100FE0005B968C915B975196ED91FC915297509640
:100FF0002C91509781FF8DC08081822B80835996E0
:101000008D919C915A97059620E001972FEF8F3F85
:101010009207D9F75B968C915B9781FF35C031E0E1
:1010200040E050E070E010E0832F90E086239723AB
:101030005196ED91FC91529750962C915097892B97
:1010400029F0808120952823208303C08081822B72
:10105000808359968D919C915A97212F01972FEF5C
:101060008F3F9207D9F7330F4F5F5F4F48305105DD
:10107000D9F65196ED91FC915297908150968C91B2
:1010800050978095892333C031E040E050E070E014
:1010900010E0832F90E0862397235196ED91FC91E9
:1010A000529750962C915097892B21F08081822B5A
:1010B000808304C0808120952823208359968D91B8
:1010C0009C915A97212F01972FEF8F3F9207D9F7C5
:1010D000330F4F5F5F4F48305105D9F65196ED9170
:1010E000FC915297808150969C915097892B8083D8
:1010F0000FBF59968D919C915A9720E001972FEF41
:101100008F3F9207D9F721E030E0C9011F910F917D
:101110000895808120952823208371CF20910F028C
:10112000309110022817390749F49FB7F8941092AC
:10113000510280915102809352029FBF08952091E5
:101140000F02309110022817390731F490915202A2
:1011500080915102981719F42FEF3FEF0AC0E091E8
:101160005202F0E0EF5EFD4F8081282F332727FDEC
:101170003095C90108951F93CF93DF93EC01162F8B
:10118000862F60E00E94E60C8B8D81FD04C0812FCC
:1011900061E00E94250D1C87212F30E0C9018A5C87
:1011A0009E4FFC0184918D872E5D3E4FF901649125
:1011B000E62FF0E0EE0FFF1FE85EFE4F8591949161
:1011C0009F878E87DF91CF911F9108951F93CF93B3
:1011D000DF93EC01162F862F61E00E94E60C60E0A1
:1011E0008B8D81FF61E0812F0E94250D212F30E042
:1011F000C9018A5C9E4FFC018491888B2E5D3E4F15
:10120000F9016491E62FF0E0EE0FFF1FE25FFE4F61
:10121000859194919A8B898BDF91CF911F9108953D
:10122000FF920F931F938C01F62EFC011382128202
:1012300088EE93E0A0E0B0E084839583A683B78333
:1012400082EA91E091838083148A138A168A158A30
:10125000108E178A128E118E838D2170220F8C7F33
:10126000822B838FC801642F0E94E608C8016F2D6E
:101270000E94BB081F910F91FF9008952091740266
:1012800030E080917302281B3109C9010895409113
:10129000730280917402481718F02FEF3FEF0AC0D5
:1012A000E42FF0E0ED5AFD4F8081282F30E04F5FB2
:1012B00040937302C9010895E09173028091740212
:1012C000E81718F0EFEFFFEF06C0F0E0ED5AFD4F22
:1012D0008081E82FF0E0CF010895089510929B02DD
:1012E00010929A0288EE93E0A0E0B0E080939C0216
:1012F00090939D02A0939E02B0939F0282EB91E097
:1013000090939902809398020895CF92DF92EF9282
:10131000FF920F931F93CF93DF937C016B018A01A0
:10132000809197028823A1F0C0E0D0E00DC0D701E2
:10133000ED91FC91D601AC0FBD1F0190F081E02D25
:10134000C7016C9109952196C017D10780F304C09D
:10135000CB01642F0E94E609C801DF91CF911F9154
:101360000F91FF90EF90DF90CF900895DF93CF9390
:101370000F92CDB7DEB7FC01698380919702882375
:10138000C9F080919602803238F081E090E093833A
:10139000828320E030E015C080919502E82FF0E0D4
:1013A000EB58FD4F998190838F5F809395028093D6
:1013B000960205C0CE01019661E00E94E60921E097
:1013C00030E0C9010F90CF91DF910895482F61322D
:1013D00010F081E008958091A402843011F082E041
:1013E00008956093EF02AEECB2E0842F9C01F90106
:1013F00002C081918D938E2F841B8617D0F380E0DD
:1014000008951F920F920FB60F9211242F933F93BE
:101410004F935F936F937F938F939F93AF93BF93FC
:10142000EF93FF938091B90090E0887F90708036B1
:10143000910509F4F2C081369105CCF58832910509
:1014400009F47BC089329105B4F48031910509F427
:101450006FC0813191053CF4009709F447C10897AA
:1014600009F04FC165C08831910509F466C08097C5
:1014700009F047C182C08034910509F4A4C08134C9
:10148000910544F48033910509F482C0C89709F0AE
:1014900038C189C08035910509F489C08835910526
:1014A00009F496C08834910509F02BC1AEC0883983
:1014B000910509F413C189399105ECF48837910538
:1014C00009F4ABC0893791054CF48836910509F4CD
:1014D000A4C08037910509F014C19FC088389105D8
:1014E00009F4FCC08039910509F49DC0803891054C
:1014F00009F007C198C0803B910509F4C6C0813B43
:1015000091054CF4803A910509F49FC0883A910501
:1015100009F0F7C0BAC0803C910509F4E3C0883CEB
:10152000910509F4DFC0883B910509F0EAC0C2C00B
:101530008091A5028093BB00CFC09091CC02809196
:10154000CD02981768F49091CC02E92FF0E0E455B1
:10155000FD4F80818093BB009F5F9093CC02BCC005
:101560008091A602882309F44BC085ED8093BC00CE
:101570008091BC0084FDFCCFC2C080E28093110347
:1015800085ED8093BC008091BC0084FDFCCFB7C08A
:1015900080E38093110385ED8093BC008091BC00B3
:1015A00084FDFCCFACC088E3809311039BC0809185
:1015B000CC029091BB00E82FF0E0E455FD4F908302
:1015C0008F5F8093CC029091CC028091CD0282C03B
:1015D0008091CC029091BB00E82FF0E0E455FD4FE4
:1015E00090838F5F8093CC028091A602882341F084
:1015F00085ED8093BC008091BC0084FDFCCF7FC052
:1016000081E08093A70284EA6EC085ED8093BC00E0
:101610008091BC0084FDFCCF72C083E08093A40263
:101620001092100359C080911003803208F056C008
:10163000809110039091BB00E82FF0E0E051FD4F46
:1016400090838F5F8093100347C080911003803296
:1016500030F4E0911003F0E0E051FD4F108285ED91
:101660008093BC008091BC0084FDFCCF1092A4024A
:1016700060911003E091AA02F091AB0280EF92E03A
:1016800070E00995109210032DC084E08093A402AD
:101690001092EE021092EF02E091A802F091A902DE
:1016A00009958091EF02882329F481E08093EF026D
:1016B0001092CE029091EE02E92FF0E0E253FD4F3E
:1016C00080818093BB009F5F9093EE029091EE0229
:1016D0008091EF02981710F485EC01C085E88093A3
:1016E000BC000FC085EC8093BC0009C010921103B0
:1016F00085ED8093BC008091BC0084FDFCCF1092EE
:10170000A402FF91EF91BF91AF919F918F917F9133
:101710006F915F914F913F912F910F900FBE0F905E
:101720001F9018951F920F920FB60F9211242F93AE
:101730003F938F939F93AF93BF93809116039091A4
:101740001703A0911803B091190330911A03019661
:10175000A11DB11D232F2D5F2D3720F02D57019690
:10176000A11DB11D20931A038093160390931703B4
:10177000A0931803B093190380911203909113035F
:10178000A0911403B09115030196A11DB11D809382
:10179000120390931303A0931403B0931503BF9106
:1017A000AF919F918F913F912F910F900FBE0F900E
:1017B0001F9018958FB7F894209116033091170356
:1017C00040911803509119038FBFB901CA010895C0
:1017D0009B01AC017FB7F8948091120390911303A1
:1017E000A0911403B091150366B5A89B05C06F3F87
:1017F00019F00196A11DB11D7FBFBA2FA92F982FF7
:101800008827860F911DA11DB11D62E0880F991FC9
:10181000AA1FBB1F6A95D1F7BC012DC0FFB7F89472
:101820008091120390911303A0911403B0911503BA
:10183000E6B5A89B05C0EF3F19F00196A11DB11DAB
:10184000FFBFBA2FA92F982F88278E0F911DA11D9A
:10185000B11DE2E0880F991FAA1FBB1FEA95D1F7BF
:10186000861B970B885E9340C8F221503040404061
:10187000504068517C4F211531054105510571F6E5
:101880000895019739F0880F991F880F991F0297C3
:101890000197F1F70895789484B5826084BD84B58A
:1018A000816084BD85B5826085BD85B5816085BD5B
:1018B000EEE6F0E0808181608083E1E8F0E0108274
:1018C000808182608083808181608083E0E8F0E0B5
:1018D000808181608083E1EBF0E08081846080839F
:1018E000E0EBF0E0808181608083EAE7F0E08081D6
:1018F0008460808380818260808380818160808336
:101900008081806880831092C10008951F93CF93D7
:10191000DF93182FEB0161E00E94E60C209709F499
:101920004AC0CF3FD10509F449C0E12FF0E0E65BA2
:10193000FE4F84918330C1F0843028F4813051F01F
:101940008230B1F50CC0863019F1873049F184300E
:1019500079F514C084B5806884BDC7BD33C084B533
:10196000806284BDC8BD2EC0809180008068809355
:101970008000D0938900C093880024C080918000AB
:10198000806280938000D0938B00C0938A001AC03D
:101990008091B00080688093B000C093B30012C003
:1019A0008091B00080628093B000C093B4000AC000
:1019B000C038D1051CF4812F60E002C0812F61E0A6
:1019C0000E94250DDF91CF911F910895CF93DF9352
:1019D000482F50E0CA018A5C9E4FFC0134914E5D55
:1019E0005E4FFA018491882369F190E0880F991F76
:1019F000FC01EC5FFE4FA591B491FC01E25FFE4F4C
:101A0000C591D491662351F42FB7F8948C91932FFC
:101A1000909589238C93888189230BC0623061F46F
:101A20002FB7F8948C91932F909589238C9388816C
:101A3000832B88832FBF06C09FB7F8948C91832B8C
:101A40008C939FBFDF91CF910895482F50E0CA013A
:101A5000865B9E4FFC012491CA018A5C9E4FFC016B
:101A600094914E5D5E4FFA013491332309F440C0E6
:101A7000222351F1233071F0243028F42130A1F0D9
:101A8000223011F514C02630B1F02730C1F02430D7
:101A9000D9F404C0809180008F7703C080918000CA
:101AA0008F7D8093800010C084B58F7702C084B58D
:101AB0008F7D84BD09C08091B0008F7703C0809175
:101AC000B0008F7D8093B000E32FF0E0EE0FFF1F9A
:101AD000E25FFE4FA591B4912FB7F894662321F4ED
:101AE0008C919095892302C08C91892B8C932FBF68
:101AF0000895682F70E0CB01865B9E4FFC01249116
:101B0000CB018A5C9E4FFC0144916E5D7E4FFB01D0
:101B10009491992319F420E030E03CC0222351F144
:101B2000233071F0243028F42130A1F0223011F557
:101B300014C02630B1F02730C1F02430D9F404C0ED
:101B4000809180008F7703C0809180008F7D80938B
:101B5000800010C084B58F7702C084B58F7D84BDAE
:101B600009C08091B0008F7703C08091B0008F7D55
:101B70008093B000892F90E0880F991F885E9E4F58
:101B8000FC01A591B4918C9120E030E0842311F008
:101B900021E030E0C90108958F929F92AF92BF92E9
:101BA000CF92DF92EF92FF920F931F93CF93DF9329
:101BB000A82FB0E0CD018A5C9E4FFC018490AE5D01
:101BC000BE4FFD018491662311F4992401C0982C25
:101BD0006FEFA62E6FEFB62E6FEFC62E6FE0D62EEC
:101BE000A222B322C422D522682F70E0660F771F8D
:101BF000685E7E4FEE24FF248701FB01A591B4911E
:101C00000BC0EA14FB040C051D0509F44EC0089432
:101C1000E11CF11C011D111D8C918821891589F38E
:101C20000CC0EA14FB040C051D0509F43EC0089421
:101C3000E11CF11C011D111D03C0FB01A591B49114
:101C40008C918821891569F720E030E040E050E070
:101C5000FB01C591D4910FC0DA01C9018E0D9F1D02
:101C6000A01FB11F8A159B05AC05BD05F1F02F5FC4
:101C70003F4F4F4F5F4F88818821891569F3CA0113
:101C8000B90125E130E040E050E00E947E139B0165
:101C9000AC01205F3F4F4F4F5F4F84E05695479513
:101CA000379527958A95D1F704C020E030E040E0D1
:101CB00050E0B901CA01DF91CF911F910F91FF90C0
:101CC000EF90DF90CF90BF90AF909F908F9008954E
:101CD00008951F920F920FB60F9211242F933F93E6
:101CE0004F938F939F93EF93FF938091C00082FD5A
:101CF0001DC04091C60020915B0330915C032F5FB3
:101D00003F4F2F73307080915D0390915E032817D1
:101D1000390771F0E0915B03F0915C03E55EFC4FE5
:101D2000408330935C0320935B0302C08091C60024
:101D3000FF91EF919F918F914F913F912F910F9034
:101D40000FBE0F901F901895E091AF03F091B00374
:101D5000E05CFF4F8191919120813181805C9F4FA8
:101D6000821B930B60E470E00E94B113892B11F089
:101D70000E94680E08951F920F920FB60F921124C1
:101D80002F933F938F939F93EF93FF9320919F0304
:101D90003091A0038091A1039091A20328173907E5
:101DA00031F48091C1008F7D8093C10014C0E09117
:101DB000A103F091A203E15AFC4F20818091A1037D
:101DC0009091A20301968F7390709093A2038093D9
:101DD000A1032093C600FF91EF919F918F913F91B6
:101DE0002F910F900FBE0F901F901895AF92BF923A
:101DF000DF92EF92FF920F931F93CF93DF93EC014B
:101E00007A018B01DD24403081EE580780E06807BD
:101E100080E0780711F0DD24D39491E0A92EB12C55
:101E2000EC89FD89DD2069F0C50108A002C0880F9A
:101E3000991F0A94E2F7808360E079E08DE390E0F7
:101E400005C0108260E874E88EE190E0A801970177
:101E50000E94C41321503040404050405695479551
:101E60003795279580E12030380720F0DD2011F0EC
:101E7000DD24D6CFE889F9893083EA89FB8920837C
:101E800019A2EE89FF89408121E030E0C9010C8C64
:101E900002C0880F991F0A94E2F7482B4083EE890D
:101EA000FF894081C9010D8C02C0880F991F0A94D7
:101EB000E2F7482B4083EE89FF894081C9010E8CEF
:101EC00002C0880F991F0A94E2F7482B4083EE89DD
:101ED000FF8980810F8C02C0220F331F0A94E2F722
:101EE000209528232083DF91CF911F910F91FF90A0
:101EF000EF90DF90BF90AF900895CF93DF93DC0118
:101F00001E968D919C911F97EC01C05CDF4FFC01E8
:101F1000EE5BFF4F28813981808191812817390735
:101F2000C9F75696ED91FC915797408121E030E03A
:101F3000C9015C960C905C9702C0880F991F0A94A7
:101F4000E2F78095842380835696ED91FC91579714
:101F50004081C9015D960C905D9702C0880F991F62
:101F60000A94E2F78095842380835696ED91FC9144
:101F700057974081C9015E960C905E9702C0880F0A
:101F8000991F0A94E2F78095842380835696ED91F9
:101F9000FC91579780815F960C905F9702C0220F4B
:101FA000331F0A94E2F72095282320831C96ED9195
:101FB000FC911D97EE5BFF4F8081918192938293FC
:101FC000DF91CF910895DC011C96ED91FC911D9756
:101FD000E05CFF4F8191919120813181805C9F4F26
:101FE000821B930B60E470E00E94B1130895DC0142
:101FF0001C96ED91FC911D97E05CFF4F2081318193
:10200000E054F040DF01AE5BBF4F8D919C91119782
:102010002817390719F42FEF3FEF07C08D919C91D6
:10202000E80FF91F8081282F30E0C9010895DC01F5
:102030001C96ED91FC911D97E05CFF4F2081318152
:10204000E054F040DF01AE5BBF4F8D919C91119742
:102050002817390719F42FEF3FEF10C08D919C918D
:102060001197E80FF91F20818D919C91119701968E
:102070008F73907011969C938E9330E0C9010895F0
:10208000DC0191968C919197882339F05496ED91CB
:10209000FC915597808186FFF9CF91961C92089507
:1020A000CF93DF93EC01EE85FF85E05CFF4F20814D
:1020B0003181E054F0402F5F3F4F2F733070DF01CC
:1020C000AE5BBF4F8D919C91119728173907D1F3C3
:1020D000E05CFF4F80819181E054F040E80FF91FF0
:1020E0006083EE85FF85E05CFF4F31832083EE89BE
:1020F000FF89208181E090E00F8C02C0880F991F3A
:102100000A94E2F7282B208381E089A3EC89FD89DA
:1021100080818064808381E090E0DF91CF91089599
:102120001092A6031092A50388EE93E0A0E0B0E021
:102130008093A7039093A803A093A903B093AA0345
:1021400082EC91E09093A4038093A3038BE193E04E
:102150009093B0038093AF038FE593E09093B20325
:102160008093B10385EC90E09093B4038093B30324
:1021700084EC90E09093B6038093B50380EC90E0FC
:102180009093B8038093B70381EC90E09093BA03E7
:102190008093B90382EC90E09093BC038093BB03DF
:1021A00086EC90E09093BE038093BD0384E080931F
:1021B000BF0383E08093C00387E08093C10385E081
:1021C0008093C20381E08093C30308950895CF9361
:1021D000DF930E944B0C0E94E6100E949303C4EA16
:1021E000DEE00E9484032097E1F30E94A40EF9CF61
:1021F000CF92DF92EF92FF920F931F93CF93DF93D3
:102200007C016B018A01C0E0D0E00FC0D6016D9166
:102210006D01D701ED91FC910190F081E02DC70196
:102220000995C80FD91F015010400115110571F70C
:10223000CE01DF91CF911F910F91FF90EF90DF9032
:10224000CF900895EF92FF920F931F938C01DC01C2
:10225000ED91FC910190F081E02D6DE009957C01FC
:10226000D801ED91FC910190F081E02DC8016AE068
:1022700009959C012E0D3F1DC9011F910F91FF90E3
:10228000EF900895CF93DF93EC016115710519F478
:1022900020E030E00FC0DB010D900020E9F711973E
:1022A000A61BB70BE881F9810280F381E02DAD0117
:1022B00009959C01C901DF91CF9108954F925F92DA
:1022C0007F928F929F92AF92BF92CF92DF92EF92C6
:1022D000FF920F931F93DF93CF93CDB7DEB7A197F4
:1022E0000FB6F894DEBF0FBECDBF2C01742ECB010C
:1022F000223008F42AE019A231E2C32ED12CCC0EF0
:10230000DD1E822E9924AA24BB24672D752FA501DA
:1023100094010E94C41379018A01C801B701A50183
:1023200094010E947E13472D461B0894C108D108D2
:102330004A3014F4405D01C0495CF6014083E11469
:10234000F1040105110521F07E2C5F2DC801DDCFC0
:10235000C201B6010E944211A1960FB6F894DEBFE9
:102360000FBECDBFCF91DF911F910F91FF90EF90E6
:10237000DF90CF90BF90AF909F908F907F905F90B5
:102380004F900895DC012115310541F4ED91FC9148
:102390000190F081E02D642F099508950E945E114F
:1023A0000895EF92FF920F931F937C010E94C21138
:1023B0008C01C7010E9422119C01200F311FC9010D
:1023C0001F910F91FF90EF900895CF92DF92EF92BF
:1023D000FF920F931F93CF93DF93EC016A017B0170
:1023E0002115310541F4E881F9810190F081E02D5A
:1023F000642F09951FC02A303105D1F477FF17C02B
:10240000E881F9810190F081E02D6DE209958C0160
:1024100044275527BA014C195D096E097F09CE0181
:102420002AE00E945E119801280F391F04C02AE09B
:102430000E945E119C01C901DF91CF911F910F9104
:10244000FF90EF90DF90CF900895CF92DF92EF92C0
:10245000FF920F931F936C017B019A010027F7FCF9
:102460000095102FB801A7010E94E5118C01C6014B
:102470000E942211080F191FC8011F910F91FF9090
:10248000EF90DF90CF900895EF92FF920F931F93FC
:102490007C010E9442118C01C7010E942211080F89
:1024A000191FC8011F910F91FF90EF9008950CD054
:1024B000EBC0E3D040F0DAD030F021F45F3F19F008
:1024C000CCC0511115C1CFC0F0D098F39923C9F3F6
:1024D0005523B1F3951B550BBB27AA27621773072A
:1024E000840738F09F5F5F4F220F331F441FAA1FDE
:1024F000A9F333D00E2E3AF0E0E830D0915050409E
:10250000E695001CCAF729D0FE2F27D0660F771F4B
:10251000881FBB1F261737074807AB07B0E809F02D
:10252000BB0B802DBF01FF2793585F4F2AF09E3FC2
:10253000510568F092C0DCC05F3FECF3983EDCF3DD
:10254000869577956795B795F7959F5FC9F7880F3B
:10255000911D9695879597F90895E1E0660F771F8D
:10256000881FBB1F621773078407BA0720F0621B1E
:10257000730B840BBA0BEE1F88F7E095089504D017
:102580006894B111B5C0089598D088F09F5790F025
:10259000B92F9927B751A0F0D1F0660F771F881F88
:1025A000991F1AF0BA95C9F712C0B13081F09FD0C7
:1025B000B1E008959CC0672F782F8827B85F39F065
:1025C000B93FCCF3869577956795B395D9F73EF4E7
:1025D00090958095709561957F4F8F4F9F4F08958F
:1025E000E89409C097FB3EF49095809570956195AD
:1025F0007F4F8F4F9F4F9923A9F0F92F96E9BB2763
:102600009395F695879577956795B795F111F8CFDE
:10261000FAF4BB0F11F460FF1BC06F5F7F4F8F4F49
:102620009F4F16C0882311F096E911C0772321F03F
:102630009EE8872F762F05C0662371F096E8862FD7
:1026400070E060E02AF09A95660F771F881FDAF72E
:10265000880F9695879597F9089597F99F6780E871
:1026600070E060E008959FEF80EC089500240A94E4
:102670001616170618060906089500240A9412165D
:102680001306140605060895092E0394000C11F490
:10269000882352F0BB0F40F4BF2B11F460FF04C03D
:1026A0006F5F7F4F8F4F9F4F089557FD9058440F96
:1026B000551F59F05F3F71F04795880F97FB991FA1
:1026C00061F09F3F79F0879508951216130614065E
:1026D000551FF2CF4695F1DF08C0161617061806EB
:1026E000991FF1CF86957105610508940895E894C6
:1026F000BB2766277727CB0197F90895629FD00102
:10270000739FF001829FE00DF11D649FE00DF11DAC
:10271000929FF00D839FF00D749FF00D659FF00D5B
:102720009927729FB00DE11DF91F639FB00DE11D48
:10273000F91FBD01CF0111240895AA1BBB1B51E154
:1027400007C0AA1FBB1FA617B70710F0A61BB70B21
:10275000881F991F5A95A9F780959095BC01CD01C6
:10276000089597FB092E07260AD077FD04D0E5DFF0
:1027700006D000201AF4709561957F4F0895F6F702
:10278000909581959F4F0895A1E21A2EAA1BBB1B1D
:10279000FD010DC0AA1FBB1FEE1FFF1FA217B3072D
:1027A000E407F50720F0A21BB30BE40BF50B661F43
:1027B000771F881F991F1A9469F760957095809507
:1027C00090959B01AC01BD01CF01089597FB092EA7
:1027D00005260ED057FD04D0D7DF0AD0001C38F4F0
:1027E00050954095309521953F4F4F4F5F4F08953D
:1027F000F6F790958095709561957F4F8F4F9F4F1D
:102800000895EE0FFF1F0590F491E02D099411E05B
:10281000C4E6D1E004C0FE010E9403142296C6362D
:08282000D107C9F7F894FFCFBE
:102828005269676874004C656674004261636B772F
:102838006172640056617379612050524720696E55
:10284800697400466F72776172640052756E6E69C2
:102858006E672070726F6772616D2056617379615F
:10286800210052756E6E696E6700537769746368EC
:10287800696E6720746F20495220636F6E74726F9F
:102888006C00BE0037001700FFFF0B0A03090C0D90
:102898000802FFFF1011140F150E060705040000AB
:1028A8000000E304F8107C04C0049F088E080000B0
:1028B8000000E304F8107C04A2049F088E080000BE
:1028C8000000DC07F810C207A1079F088E08000067
:1028D8000000B60985093E0947095C096D09000031
:0E28E80000005010F810E30F1710F70F40100B
:00000001FF
